:020000040800F2
:10000000000002206D4701086D3B0108793B0108A3
:100010007F3B0108853B01088B3B01080000000085
:10002000000000000000000000000000913B0108FB
:100030009D3B010800000000A93B0108B53B0108F9
:10004000BD470108BD470108BD470108BD4701087C
:10005000BD470108BD470108BD470108BD4701086C
:10006000BD470108BD470108BD470108BD4701085C
:10007000BD470108BD470108BD470108BD4701084C
:10008000BD470108BD470108BD470108BD4701083C
:10009000BD470108BD470108BD470108BD4701082C
:1000A000BD470108BD470108BD470108BD4701081C
:1000B000BD470108BD470108BD470108BD4701080C
:1000C000BD470108BD470108BD470108BD470108FC
:1000D000BD470108BD470108BD470108BD470108EC
:1000E000BD470108BD470108BD470108BD470108DC
:1000F000BD470108BD470108BD470108BD470108CC
:10010000BD470108BD470108BD470108BD470108BB
:10011000BD470108BD470108BD470108BD470108AB
:10012000BD470108BD470108BD470108BD4701089B
:10013000BD470108BD470108BD470108BD4701088B
:10014000BD470108BD470108BD470108C53B01087F
:10015000BD470108BD470108BD470108BD4701086B
:10016000BD470108BD470108BD470108BD4701085B
:10017000BD470108BD470108BD4701080000000058
:08018000BD470108BD4701085D
:1001900010B5054C237833B9044B13B10448AFF3C1
:1001A00000800123237010BDEC010020000000003E
:1001B000F071010808B5034B1BB103490348AFF3C5
:1001C000008008BD00000000F0010020F07101086F
:1001D00081F0004102E000BF83F0004330B54FEAF8
:1001E00041044FEA430594EA050F08BF90EA020F65
:1001F0001FBF54EA000C55EA020C7FEA645C7FEAF8
:10020000655C00F0E2804FEA5454D4EB5555B8BF1A
:100210006D420CDD2C4480EA020281EA030382EA8B
:10022000000083EA010180EA020281EA0303362D1D
:1002300088BF30BD11F0004F4FEA01314FF4801CF0
:100240004CEA113102D0404261EB410113F0004F02
:100250004FEA03334CEA133302D0524263EB4303B9
:1002600094EA050F00F0A780A4F10104D5F1200E57
:100270000DDB02FA0EFC22FA05F2801841F10001B2
:1002800003FA0EF2801843FA05F359410EE0A5F186
:1002900020050EF1200E012A03FA0EFC28BF4CF0B7
:1002A000020C43FA05F3C01851EBE37101F000456D
:1002B00007D54FF0000EDCF1000C7EEB00006EEB7A
:1002C0000101B1F5801F1BD3B1F5001F0CD3490804
:1002D0005FEA30004FEA3C0C04F101044FEA44525B
:1002E00012F5800F80F09A80BCF1004F08BF5FEAE2
:1002F000500C50F1000041EB045141EA050130BDC2
:100300005FEA4C0C404141EB010111F4801FA4F164
:100310000104E9D191F0000F04BF01460020B1FAB9
:1003200081F308BF2033A3F10B03B3F120020CDAF1
:100330000C3208DD02F1140CC2F10C0201FA0CF0CF
:1003400021FA02F10CE002F11402D8BFC2F1200C34
:1003500001FA02F120FA0CFCDCBF41EA0C019040EA
:10036000E41AA2BF01EB0451294330BD6FEA040433
:100370001F3C1CDA0C340EDC04F11404C4F120021E
:1003800020FA04F001FA02F340EA030021FA04F330
:1003900045EA030130BDC4F10C04C4F1200220FA87
:1003A00002F001FA04F340EA0300294630BD21FAC5
:1003B00004F0294630BD94F0000F83F4801306BF8B
:1003C00081F480110134013D4EE77FEA645C18BF7F
:1003D0007FEA655C29D094EA050F08BF90EA020F16
:1003E00005D054EA000C04BF1946104630BD91EA0E
:1003F000030F1EBF0021002030BD5FEA545C05D111
:100400004000494128BF41F0004130BD14F580044F
:100410003CBF01F5801130BD01F0004545F0FE41C3
:1004200041F470014FF0000030BD7FEA645C1ABFF8
:10043000194610467FEA655C1CBF0B46024650EA2F
:10044000013406BF52EA033591EA030F41F400215B
:1004500030BD00BF90F0000F04BF0021704730B5E1
:100460004FF4806404F132044FF000054FF00001B6
:1004700050E700BF90F0000F04BF0021704730B577
:100480004FF4806404F1320410F0004548BF40424C
:100490004FF000013EE700BF42004FEAE2014FEAA1
:1004A00031014FEA02701FBF12F07F4393F07F4F7C
:1004B00081F06051704732F07F4208BF704793F07F
:1004C0007F4F04BF41F40021704730B54FF4607492
:1004D00001F0004521F000411CE700BF50EA010295
:1004E00008BF704730B54FF000050AE050EA01023E
:1004F00008BF704730B511F0004502D5404261EBAE
:1005000041014FF4806404F132045FEA915C3FF4EE
:10051000D8AE4FF003025FEADC0C18BF03325FEA8B
:10052000DC0C18BF033202EBDC02C2F1200300FA3C
:1005300003FC20FA02F001FA03FE40EA0E0021FA61
:1005400002F11444BDE600BF70B54FF0FF0C4CF44F
:10055000E06C1CEA11541DBF1CEA135594EA0C0F01
:1005600095EA0C0F00F0DEF82C4481EA030621EA3C
:100570004C5123EA4C5350EA013518BF52EA033577
:1005800041F4801143F4801338D0A0FB02CE4FF029
:100590000005E1FB02E506F00042E0FB03E54FF059
:1005A0000006E1FB03569CF0000F18BF4EF0010E51
:1005B000A4F1FF04B6F5007F64F5407404D25FEA4D
:1005C0004E0E6D4146EB060642EAC62141EA555100
:1005D0004FEAC52040EA5E504FEACE2EB4F1FD0C42
:1005E00088BFBCF5E06F1ED8BEF1004F08BF5FEAC0
:1005F000500E50F1000041EB045170BD06F0004672
:1006000046EA010140EA020081EA0301B4EB5C041E
:10061000C2BFD4EB0C0541EA045170BD41F4801116
:100620004FF0000E013C00F3AB8014F1360FDEBF3B
:10063000002001F0004170BDC4F10004203C35DA17
:100640000C341BDC04F11404C4F1200500FA05F39A
:1006500020FA04F001FA05F240EA020001F000423B
:1006600021F0004110EBD37021FA04F642EB0601B1
:100670005EEA430E08BF20EAD37070BDC4F10C04DB
:10068000C4F1200500FA04F320FA05F001FA04F29F
:1006900040EA020001F0004110EBD37041F100018B
:1006A0005EEA430E08BF20EAD37070BDC4F1200596
:1006B00000FA05F24EEA020E20FA04F301FA05F2FE
:1006C00043EA020321FA04F001F0004121FA04F2A6
:1006D00020EA020000EBD3705EEA430E08BF20EA76
:1006E000D37070BD94F0000F0FD101F000464000B0
:1006F00041EB010111F4801F08BF013CF7D041EA32
:10070000060195F0000F18BF704703F00046520035
:1007100043EB030313F4801F08BF013DF7D043EA06
:100720000603704794EA0C0F0CEA135518BF95EABC
:100730000C0F0CD050EA410618BF52EA4306D1D143
:1007400081EA030101F000414FF0000070BD50EA62
:10075000410606BF1046194652EA430619D094EAEC
:100760000C0F02D150EA013613D195EA0C0F05D1D6
:1007700052EA03361CBF104619460AD181EA03012A
:1007800001F0004141F0FE4141F470014FF00000E2
:1007900070BD41F0FE4141F4780170BD70B54FF07D
:1007A000FF0C4CF4E06C1CEA11541DBF1CEA1355FD
:1007B00094EA0C0F95EA0C0F00F0A7F8A4EB0504DF
:1007C00081EA030E52EA03354FEA013100F08880D6
:1007D0004FEA03334FF0805545EA131343EA12639F
:1007E0004FEA022245EA111545EA10654FEA002654
:1007F0000EF000419D4208BF964244F1FD0404F50D
:10080000407402D25B084FEA3202B61A65EB030568
:100810005B084FEA32024FF480104FF4002CB6EB25
:10082000020E75EB030E22BFB61A754640EA0C00A5
:100830005B084FEA3202B6EB020E75EB030E22BFE5
:10084000B61A754640EA5C005B084FEA3202B6EB26
:10085000020E75EB030E22BFB61A754640EA9C00E5
:100860005B084FEA3202B6EB020E75EB030E22BFB5
:10087000B61A754640EADC0055EA060E18D04FEA73
:10088000051545EA16754FEA06164FEAC30343EA13
:1008900052734FEAC2025FEA1C1CC0D111F4801FE0
:1008A0000BD141EA00014FF000004FF0004CB6E7D9
:1008B00011F4801F04BF01430020B4F1FD0C88BF78
:1008C000BCF5E06F3FF6AFAEB5EB030C04BFB6EB83
:1008D000020C5FEA500C50F1000041EB045170BD76
:1008E0000EF0004E4EEA113114EB5C04C2BFD4EBA3
:1008F0000C0541EA045170BD41F480114FF0000E27
:10090000013C90E645EA060E8DE60CEA135594EAA2
:100910000C0F08BF95EA0C0F3FF43BAF94EA0C0FA5
:100920000AD150EA01347FF434AF95EA0C0F7FF41A
:1009300025AF104619462CE795EA0C0F06D152EA6E
:1009400003353FF4FDAE1046194622E750EA410652
:1009500018BF52EA43067FF4C5AE50EA41047FF463
:100960000DAF52EA43057FF4EBAE12E74FF0FF3CC8
:1009700006E000BF4FF0010C02E000BF4FF0010C99
:100980004DF804CD4FEA410C7FEA6C5C4FEA430C12
:1009900018BF7FEA6C5C1BD001B050EA410C0CBF61
:1009A00052EA430C91EA030F02BF90EA020F0020C3
:1009B000704710F1000F91EA030F58BF994208BF2A
:1009C00090422CBFD8176FEAE37040F001007047E7
:1009D0004FEA410C7FEA6C5C02D150EA013C07D13E
:1009E0004FEA430C7FEA6C5CD6D152EA033CD3D089
:1009F0005DF8040B704700BF8446104662468C4683
:100A00001946634600E000BF01B5FFF7B7FF0028B5
:100A100048BF10F1000F01BD4DF808EDFFF7F4FFDE
:100A20000CBF012000205DF808FB00BF4DF808ED69
:100A3000FFF7EAFF34BF012000205DF808FB00BF8C
:100A40004DF808EDFFF7E0FF94BF012000205DF8AE
:100A500008FB00BF4DF808EDFFF7CEFF94BF012063
:100A600000205DF808FB00BF4DF808EDFFF7C4FF5C
:100A700034BF012000205DF808FB00BF53B94AB91C
:100A8000002908BF00281CBF4FF0FF314FF0FF3096
:100A900001F0EAB8ADF1080C6DE904CE00F006F8FB
:100AA000DDF804E0DDE9022304B070472DE9F047EA
:100AB000089E04468846002B40F085808A421546F1
:100AC00048D9B2FA82F24AB1C2F1200701FA02F320
:100AD00020FA07F7954047EA030894404FEA154E7D
:100AE000230CB8FBFEF71FFA85FC0EFB178843EAC0
:100AF000084307FB0CF1994209D9EB1807F1FF30C5
:100B000080F0E380994240F2E080023F2B445B1A80
:100B1000A4B2B3FBFEF00EFB103344EA034400FB27
:100B20000CFCA44509D92C1900F1FF3380F0CB80CF
:100B3000A44540F2C88002382C4440EA0740A4EBA8
:100B40000C0400271EB1D4400023C6E900433946F7
:100B5000BDE8F087002A53D0B2FA82F2002A40F0B2
:100B6000B680491B4FEA154E1FFA85F80127B1FBE5
:100B7000FEFC230C0EFB1C1143EA014308FB0CF1A5
:100B8000994207D9EB180CF1FF3002D2994200F2DA
:100B9000EC808446591AA3B2B1FBFEF00EFB101490
:100BA00043EA044408FB00F8A04507D92C1900F1DA
:100BB000FF3302D2A04500F2DC801846A4EB080403
:100BC00040EA0C40BEE78B4208D9002E78D00027BF
:100BD000C6E9000138463946BDE8F087B3FA83F725
:100BE0007FB98B4202D3824200F2BD80841A61EB4E
:100BF000030301209846002EA9D0C6E90048A6E7C5
:100C0000FFDEC7F12005BB4022FA05FC4CEA030CCD
:100C100001FA07F420FA05F821FA05F34FEA1C4E11
:100C200048EA0404B3FBFEF9210C0EFB19331FFA4A
:100C30008CF841EA034309FB08FA9A4502FA07F2E5
:100C400000FA07F10BD91CEB030309F1FF3080F028
:100C500088809A4540F28580A9F102096344A3EB9C
:100C60000A03A4B2B3FBFEF00EFB103344EA0344C4
:100C700000FB08F8A04508D91CEB040400F1FF3381
:100C80006BD2A04569D90238644440EA0940A4EB1C
:100C90000804A0FB02894C45C6464B4654D351D0AC
:100CA000002E69D0B1EB0E0264EB030404FA05F5E3
:100CB00022FA07F3FC401D43C6E90054002746E72B
:100CC0003746304643E7184637E707461FE7C2F185
:100CD000200320FA03F7954001FA02F021FA03F30A
:100CE0004FEA154E3843010CB3FBFEF71FFA85F8A7
:100CF0000EFB173341EA034107FB08F38B4204FA6A
:100D000002F407D9691807F1FF3C28D28B4226D993
:100D1000023F2944CB1A81B2B3FBFEF00EFB103325
:100D200041EA034100FB08F38B4207D9691800F13F
:100D3000FF3C10D28B420ED902382944C91A40EA2E
:100D4000074714E74145ABD2B8EB020E69EB0C0242
:100D500001381346A4E76046F0E7184695E7674672
:100D6000D8E781467BE7384645E7ACF1020C2B44D7
:100D700010E702382C4421E73746E8E603685A00BA
:100D80004CBF43F0004323F000431844704700BFBA
:100D900069B32DE9F04701F1FF3917460646C84609
:100DA0004FF0000A0AEB080404EBD4746410E50069
:100DB00071190846FFF7E2FFA145034605F1080057
:100DC000304409D0BB4209D8FFF7D8FF0138B842F8
:100DD0000AD204F1010AE5E7BB4205D9A24502D0D7
:100DE00004F1FF38DEE700210846BDE8F087084639
:100DF000704700BF012807D0022807D0044B002805
:100E00000CBF1846002070470248704702487047E0
:100E1000D1140008D5140008D914000830B5244BAB
:100E200083B004468D1E4BB301A92846AFF3008062
:100E3000F0B101992A46FFF7ABFF0146C0B1FFF7B9
:100E40009DFF4B68A064012B2ED0002B01F1040004
:100E500026DBFFF793FF0023C4E913030368002B8D
:100E600012DBFFF78BFF00232061184603B030BD73
:100E7000002323610923184603B030BD0D490E48F5
:100E8000091AC9100191D5E7C3F30360FFF7B2FF58
:100E9000002814BF002309232061184603B030BD89
:100EA0000123C4E91303D9E7002323610523DCE709
:100EB0000000000064CC010854C201080368DA078E
:100EC00010B5044606D49B0700F1480009D500F090
:100ED00055FC2368590709D51A070ED5DB0613D52B
:100EE00010BD00F043FC23685907F5D404F1D0008D
:100EF00000F04CFC23681A07F0D404F5A87000F049
:100F00004DFC2368DB06EBD404F5E870BDE8104027
:100F100000F088BC036803B103441846704700BF63
:100F200009207047704700BF70B504460D46296C14
:100F30002046FFF773FF064688B92B6C63612A468B
:100F400023692146012098470828F0D0072806D1B8
:100F50003046296CFFF7E6FF281D00F0FBFB14F07C
:100F6000D8FE00BF2DE9F0470C1D054617460FCCF3
:100F7000ADF5727D03AE0FC60FCC0FC60FCC0FC6FA
:100F800094E80F0002ACD5F80C80D5F8189086E8EC
:100F90000F0000232846216C2360FFF73FFF002F3E
:100FA000064614BF0A27092746BB236C6B614FF422
:100FB000F07221467AA814F039FF2B697AAA2946E3
:100FC00038469847889B8246CDE900493946636494
:100FD0002A462B460120C047D8B94FF4F0727AA9AF
:100FE000204614F023FFBAF1080F18D1216C2846CF
:100FF000FFF714FF06460927002ED6D0A36B47F053
:101000001001CDE900492A46636401202B46C04700
:1010100000B1092630460DF5727DBDE8F087BAF1C2
:10102000070FF6D13046216CFFF77CFF03A800F0D4
:1010300091FB00BF406C7047F0B5CB6B0B640E1D8D
:101040000F4604460FCEF9B001AD0FC50FCE0FC548
:101050000FCE0FC596E80F004FF0FF3685E80F0062
:10106000009606E023696A46214698470828054607
:1010700008D110992046FFF7D1FE0028F2D00920B0
:1010800079B0F0BD6846FFF719FF062DF7D1394654
:101090002046FFF749FF00BF30B4DD6BC1608261BD
:1010A00019461D64002230BC5CE700BF70B5C668FD
:1010B00043690B64AEB903690A4604460D4601460E
:1010C00002209847072805D008280FD12946204636
:1010D000FFF72AFF3046296CFFF724FF281D00F098
:1010E00039FB0122FFF73EFF14F013FE14F011FE4E
:1010F000C2681AB1CA6B0A64002233E79CE700BFDA
:10110000704700BF836813B101460120184770473C
:10111000042910D8DFE801F005030F0303000120C4
:10112000704743B90F2A06D800EB8202184653686D
:10113000009A136070470220704700BF10B584B05A
:10114000002303AC0A4600941946FFF7E1FF039819
:1011500004B010BD042910D8DFE801F005030F0327
:1011600003000120704743B90F2A06D800EB820024
:10117000009A12684260184670470220704700BF0C
:1011800010B584B0002303AC039200940A461946BC
:10119000FFF7E0FF04B010BDF0B5D36B1364151D6D
:1011A00007460E460FCDADF50F7D17AC0FC40FCD22
:1011B0000FC40FCD0FC495E80F004FF0FF3584E842
:1011C0000F00169510E016A8FFF7DAFF314616A8B3
:1011D000B84716AA694678B9049B0820984705289D
:1011E00004460AD0092807D026996846FFF716FE5C
:1011F0006A460C210028E6D0092416A8FFF75EFEF7
:1012000020460DF50F7DF0BD2DE9F04FCC6C89B077
:101210000D4654F8041B0694174600F003081E46BA
:10122000002B61D00B0CDAB209048DF81D300223BB
:1012300004EB820405918DF81C302B6DB8F1020F80
:1012400008BFAC6B13F0010378D1019300F00803E1
:101250000293D4F800A0BAF1000F00F01B81022E17
:101260003ED0B4F800A0B4F802900434AA6C29F07F
:10127000010B0F2138469344FFF760FF83452DD8BB
:101280002AF001025A44824294BF002001204FEA12
:10129000490303F002030AF0010A43EA0A03012B9F
:1012A00030D03BB3022B15D1236823F0004BB8F1AB
:1012B000000F4DD130B1029A002A6DD0BBF1000F62
:1012C00000F0A080002B00DA04340BF1010B04EBDA
:1012D0008B04BEE7092009B0BDE8F08F0020D6E7F7
:1012E000D4F804900834C1E7090203230591ADF84E
:1012F0001C30A2E7B8F1000F02D0002840F09D801A
:101300000434A6E7B8F1000F2CD1A8B1D4E900232A
:10131000991C4FEAD272DDD005F1580101330491D6
:1013200000F09E80201DFFF7F5FD04AB0146284626
:1013300013F0D0FD00286FD108348AE7384605A99C
:1013400000F00AFB0028C5D1082009B0BDE8F08FE5
:101350000D213846D5F82090FFF7F0FE814540D0AA
:101360002368AFE70D213846D5F82090FFF7E6FE59
:101370008145E1D1AB6A9C42DED12046FFF7FEFCFD
:101380000F2102463846FFF7FBFE38462A46002169
:10139000FFF7F6FE07209EE7BBF1000F32D005F104
:1013A0005803CDF80C8004F10409B046DDF808A01C
:1013B0001E4601E0DA4525D048460496FFF7AAFD0F
:1013C00004AB01460022284613F084FD0AF1010A0D
:1013D00009F104090028EDD046462368DDF80C80A9
:1013E00070E7AB6A9C42BBD104224FF00009A318FE
:1013F000C5E90AB9C5E90C2323684B4538DB01234D
:10140000019362E738460D21FFF798FE049B28629E
:10141000C5E9093406205EE781460D213846FFF70D
:101420008DFEB9F1020F28621FD12B46049A43F8B2
:101430002C2F6B62AC6206204DE72046FFF79EFC26
:1014400004340646AC63284613F0A2FD00283FF49E
:1014500041AF384632460F21FFF792FE07203AE7A8
:1014600038460D21FFF76AFE2862049B6B62E1E7B4
:101470000BF1010004EB8000FFF780FC0F21024616
:101480003846FFF77DFE38462A464946FFF778FE84
:10149000072020E705A9384600F05EFA00287FF40F
:1014A00019AF019B002B3FF44FAF0F213846FFF7D8
:1014B00045FE0E2102463846FFF762FE3846034AD3
:1014C0000F21FFF75DFE072005E700BF294D01084A
:1014D000002399E6012397E6022395E62DE9F041E2
:1014E0000546C4B0042900F2B380DFE801F095514D
:1014F000B12B0300002B40F0AB80102A00F2A88033
:101500002B68DC0600F1FA8022AC2046019200F044
:1015100093F9AE6B019A0023012707FA03F11142F8
:10152000304604D050F8041B44F82310064601331B
:10153000042BF2D12046AE6300F074F9002044B0D1
:10154000BDE8F081032B40F08380160C97B2F319AD
:10155000102B7DD82B681A0700F1DA8022AC2046C8
:1015600000F03EF904EBC600A96B4FB10346FA0048
:101570001044CE1A9F5943F8047B8342FAD1114498
:101580002046A96300F00AF9002044B0BDE8F081CC
:10159000012B4FEA12461FFA82F855D0052B57D17E
:1015A00006EB0807202F53D80F2E55D94746B8F120
:1015B000000F64D14046A96BB8F1000F00F0B7806E
:1015C000002722AC04EBC604043C01EBC00251F836
:1015D000040B44F8040F9142F9D17FB102AC102EF4
:1015E000304638BF102004EBC000843802EBC7013E
:1015F00052F8044B40F8044F9142F9D1012B00F00E
:101600008F800F2EA96365D917B102A800F0BEF82C
:10161000002044B0BDE8F081D3B9AC6B97B201268D
:1016200005F1040C06FA03F13942204604D050F8C3
:10163000041B4CF8231004460133102BF2D112F492
:101640000050E5D1AC6304E006EB0802102A28D96B
:10165000022044B0BDE8F081102F6AD9103F2A68FB
:10166000D0070AD5284622F0010242F0020240F8D3
:10167000482B019300F086F8019B002F5BD02A686D
:10168000510731D40F2E29D902AC2046019300F026
:1016900081F8C6F110000028A96B019B91DC0A4675
:1016A0009DE70F2ED4D82A68D10708D5284622F006
:1016B000030240F8482B019300F05CF8019B019372
:1016C00022AC204600F056F84046A96B019B40B37F
:1016D000002777E722A800F051F895E722A80193A8
:1016E00000F050F8019BCFE7284622F0040240F8B2
:1016F000D02B019300F04EF8019BC3E723F01003B9
:101700002B6005F5E870019200F096F8019AFBE66F
:1017100023F008032B6005F5A87000F061F81DE7C1
:1017200022AC0431A963204600F020F870E7474658
:1017300067E7002793E70F2E3FF63CAF22AC204629
:10174000019300F01FF84046A96B019B00287FF42D
:1017500039AF56E700F1340191E838009C46A646BF
:101760004CF8045D90E8FF0FE54600BD90EC210BBE
:10177000704700BF80EC210B704700BF90EC200B3E
:10178000704700BF80EC200B704700BFD0EC200BEF
:10179000704700BFC0EC200B704700BFF0EC0201A7
:1017A000F0EC0211F0EC0221F0EC0231F0EC02411D
:1017B000F0EC0251F0EC0261F0EC0271F0EC02810D
:1017C000F0EC0291F0EC02A1F0EC02B1F0EC02C1FD
:1017D000F0EC02D1F0EC02E1F0EC02F1704700BF56
:1017E000E0EC0201E0EC0211E0EC0221E0EC02315D
:1017F000E0EC0241E0EC0251E0EC0261E0EC02714D
:10180000E0EC0281E0EC0291E0EC02A1E0EC02B13C
:10181000E0EC02C1E0EC02D1E0EC02E1E0EC02F12C
:10182000704700BFB0FC0181B0FC0191B0FC01A188
:10183000B0FC01B1704700BFA0FC0181A0FC019188
:10184000A0FC01A1A0FC01B1704700BFEC4600B5AF
:101850002DE900502DE9FF1F4FF000032DE90C008A
:1018600001A9FFF7E9FBDDF840E012B0704700BFC7
:10187000EC4600B52DE900502DE9FF1F4FF00003A5
:101880002DE90C0001A9FFF711FCDDF840E012B0D2
:10189000704700BFEC4600B52DE900502DE9FF1F51
:1018A0004FF000032DE90C0001A9FFF721FCDDF842
:1018B00040E012B0704700BFEC4600B52DE9005083
:1018C0002DE9FF1F4FF000032DE90C0001ABFFF7DE
:1018D000E3FBDDF840E012B0704700BFEC4600B516
:1018E0002DE900502DE9FF1F4FF000032DE90C00FA
:1018F00001AAFFF751FCDDF840E012B0704700BFCD
:10190000027A7AB9437AA3B14268013B10B44372B8
:1019100013680321141D01721A024460026010BC96
:10192000180E70470368013A02721A020260180E1C
:101930007047B020704700BF00B585B003AA0023F0
:10194000009219460C22FFF7E3FB039805B05DF8FF
:1019500004FB00BFF0E700BF2DE9F043054685B06A
:101960000E464FF000083046FFF7CAFFB028044685
:1019700000F0B280070620D500F0F003802B4DD098
:10198000902B36D0A02B60D0B02B74D0C02B00F0A1
:101990008B8000F0F803D02B0BD100F0070201324E
:1019A00042F40022052301212846FFF797FD002875
:1019B000D9D0092005B0BDE8F0830DF10C09002352
:1019C00019468700CDF800900D222846FFF7A0FBAE
:1019D000FFB2039BCDF80090043760064CBFDF1BBD
:1019E000FF18002319460D2228460397FFF7B2FB84
:1019F000B9E700F00D030D2BDBD003AF002300F09F
:101A00000F02194600972846FFF782FB0023009734
:101A100019460D222846FFF79DFBA4E73046FFF745
:101A20006FFF24020443B4F5004FC2D02401002309
:101A3000A2B219462846FFF751FD0028B9D114F487
:101A4000004F18BF4FF001088DE7C24302F00703B3
:101A50004FF47F621A41010702F47F624FF00003E6
:101A600048BF42F4804219462846FFF737FD002858
:101A70003FF479AF9DE7B12833D0B22800F0A080C1
:101A8000B32841D000F0FC03B42B92D000F0070241
:101A90000132012342F4002219462846FFF71EFDB9
:101AA00000283FF460AF84E7C62851D0C7285AD039
:101AB00000F0F803C02B69D0C82875D0C9287FF47E
:101AC00078AF3046FFF71CFF020300F00F0002F46E
:101AD00070220130024365E7B8F1000F27D00020E3
:101AE00068E73046FFF70CFF00283FF462AF10F0C4
:101AF000F0037FF45EAF024619462846FFF7EEFC7E
:101B000000283FF430AF54E73046FFF7F9FE0103F9
:101B100000F00F0001F47021421C01230A43284603
:101B20001946FFF7DBFC00283FF41DAF41E703AC8B
:101B300043460E22414600942846FFF7E9FA0094F6
:101B4000284643460F224146FFF704FB404631E753
:101B50003046FFF7D5FE010300F00F0001F47021BD
:101B6000421C0323DAE73046FFF7CAFE00283FF4A1
:101B700020AF10F0F0037FF41CAF0246042128468A
:101B8000FFF7ACFC00283FF4EEAE12E700F00F02C6
:101B90000132032342F4202219462846FFF79EFC17
:101BA00000283FF4E0AE04E73046FFF7A9FE00F05E
:101BB000F00200F00F031032013343EA0232F1E683
:101BC00000230DF10C090D221946CDF8009028468E
:101BD000FFF79EFA3046FFF793FE02064FF002072A
:101BE0000CD5039B00F07F00B840034430460393BC
:101BF000FFF786FE030607F10707F2D4039BCDF833
:101C0000009000F07F0403F50172BC4000231444EF
:101C100019460D2228460394FFF79CFAA3E600BF5D
:101C200010B5C36C84B05A6803208DF80C00DC79C1
:101C30008DF80D4012020833084601A90192029363
:101C4000FFF78AFE04B010BD08B5FFF783FE806C75
:101C500008BD00BF08B5FFF77DFEC06CC379023335
:101C600000EB830008BD00BF704700BF000000000C
:101C700001F0FF01102A2BDB10F0070F08D010F83D
:101C8000013B013A8B422DD010F0070F42B3F6D141
:101C9000F0B441EA012141EA014122F007047FF05A
:101CA00000070023F0E80256083C85EA010586EAB1
:101CB000010685FA47F5A3FA87F586FA47F6A5FAED
:101CC00087F68EB9EED1F0BC01F0FF0102F00702F9
:101CD00032B110F8013B013A83EA010313B1F8D1A4
:101CE0000020704701387047002D06BF3546033885
:101CF000073815F0010F07D1013015F4807F02BFBE
:101D0000013015F4C03F0130F0BC0138704700BF0E
:101D100010F8012B11F8013B012A28BF9A42F7D095
:101D2000D01A7047034613F8012B002AFBD1181A6A
:101D30000138704780B500AF0E4B1B680D4A43F465
:101D4000007313600B4B1B680A4A43F480631360F3
:101D5000084B1B68074A43F480731360032000F0AC
:101D600045F9002000F008F811F04AFE002318465B
:101D700080BD00BF003C024080B582B000AF7860FB
:101D8000124B1A68124B1B7819464FF47A73B3FB47
:101D9000F1F3B2FBF3F3184600F05DF90346002BB4
:101DA00001D001230EE07B680F2B0AD8002279684E
:101DB0004FF0FF3000F025F9064A7B6813600023DE
:101DC00000E0012318460837BD4680BD1C010020F5
:101DD000080000200400002080B400AF054B1B78F1
:101DE0001A46054B1B681344034A136000BFBD46E7
:101DF00080BC7047080000200802002080B400AFBB
:101E0000024B1B681846BD4680BC70470802002084
:101E100080B584B000AF7860FFF7F0FFB8607B68F2
:101E2000FB60FB68B3F1FF3F05D0094B1B781A46F6
:101E3000FB681344FB6000BFFFF7E0FF0246BB688E
:101E4000D31AFA689A42F7D800BF1037BD4680BD52
:101E50000800002080B485B000AF78607B6803F094
:101E60000703FB600C4BDB68BB60BA684FF6FF03EF
:101E70001340BB60FB681A02BB68134343F0BF63A7
:101E800043F40033BB60044ABB68D36000BF14371F
:101E9000BD4680BC704700BF00ED00E080B400AFDD
:101EA000044BDB681B0A03F007031846BD4680BCE1
:101EB000704700BF00ED00E080B483B000AF034680
:101EC000FB7197F90730002B0BDBFB7903F01F0246
:101ED000064997F907305B09012000FA02F241F840
:101EE000232000BF0C37BD4680BC704700E100E0F6
:101EF00080B483B000AF03463960FB7197F90730B7
:101F0000002B0ADB3B68DAB20C4997F90730120163
:101F1000D2B20B4483F800230AE03B68DAB20849E6
:101F2000FB7903F00F03043B1201D2B20B441A7683
:101F300000BF0C37BD4680BC704700BF00E100E029
:101F400000ED00E080B489B000AFF860B9607A605D
:101F5000FB6803F00703FB61FB69C3F10703042B74
:101F600028BF0423BB61FB690433062B02D9FB693C
:101F7000033B00E000237B614FF0FF32BB6902FAB4
:101F800003F3DA43BB681A407B699A404FF0FF3194
:101F90007B6901FA03F3D9437B680B40134318466E
:101FA0002437BD4680BC704780B582B000AF7860F2
:101FB0007B68013BB3F1807F01D301230FE00A4A24
:101FC0007B68013B53600F214FF0FF30FFF790FF1C
:101FD000054B00229A60044B07221A600023184622
:101FE0000837BD4680BD00BF10E000E080B582B07C
:101FF00000AF78607868FFF72DFF00BF0837BD4657
:1020000080BD80B586B000AF0346B9607A60FB73CF
:1020100000237B61FFF742FF78617A68B9687869CD
:10202000FFF790FF024697F90F3011461846FFF769
:102030005FFF00BF1837BD4680BD80B582B000AFDE
:102040000346FB7197F907301846FFF735FF00BFCD
:102050000837BD4680BD80B582B000AF7860786833
:10206000FFF7A2FF034618460837BD4680BD0000B3
:1020700080B489B000AF7860396000237B610023B1
:102080003B610023BB610023FB616BE10122FB6923
:1020900002FA03F37B613B681B687A6913403B617A
:1020A0003A697B699A4240F05A813B685B68022B2F
:1020B00003D03B685B68122B23D1FB69DA087B688D
:1020C000083253F82230BB61FB6903F007039B0021
:1020D0000F2202FA03F3DB43BA691340BB613B688A
:1020E0001A69FB6903F007039B0002FA03F3BA695C
:1020F0001343BB61FB69DA087B680832B96943F8AE
:1021000022107B681B68BB61FB695B00032202FA3B
:1021100003F3DB43BA691340BB613B685B6803F0C0
:102120000302FB695B0002FA03F3BA691343BB6164
:102130007B68BA691A603B685B68012B0BD03B680F
:102140005B68022B07D03B685B68112B03D03B68B0
:102150005B68122B30D17B689B68BB61FB695B00BD
:10216000032202FA03F3DB43BA691340BB613B6805
:10217000DA68FB695B0002FA03F3BA691343BB61D7
:102180007B68BA699A607B685B68BB610122FB6906
:1021900002FA03F3DB43BA691340BB613B685B6837
:1021A0001B0903F00102FB6902FA03F3BA69134346
:1021B000BB617B68BA695A607B68DB68BB61FB699D
:1021C0005B00032202FA03F3DB43BA691340BB61ED
:1021D0003B689A68FB695B0002FA03F3BA69134330
:1021E000BB617B68BA69DA603B685B6803F0805367
:1021F000002B00F0B4800023FB605F4B5B6C5E4AF9
:1022000043F4804353645C4B5B6C03F48043FB609A
:10221000FB685A4AFB699B08023352F82330BB61C2
:10222000FB6903F003039B000F2202FA03F3DB4375
:10223000BA691340BB617B68514A93422BD07B68DB
:10224000504A934225D07B684F4A93421FD07B6807
:102250004E4A934219D07B684D4A934213D07B6813
:102260004C4A93420DD07B684B4A934207D07B681F
:102270004A4A934201D107230EE008230CE00623CB
:102280000AE0052308E0042306E0032304E0022318
:1022900002E0012300E00023FA6902F00302920049
:1022A0009340BA691343BB613449FB699B0802330D
:1022B000BA6941F823203A4B1B68BB613B69DB4399
:1022C000BA691340BB613B685B6803F48033002B41
:1022D00003D0BA693B691343BB61314ABB691360E0
:1022E0002F4B5B68BB613B69DB43BA691340BB6141
:1022F0003B685B6803F40033002B03D0BA693B6989
:102300001343BB61264ABB695360254B9B68BB6185
:102310003B69DB43BA691340BB613B685B6803F40C
:102320008013002B03D0BA693B691343BB611C4A7D
:10233000BB6993601A4BDB68BB613B69DB43BA69DD
:102340001340BB613B685B6803F40013002B03D0B0
:10235000BA693B691343BB61114ABB69D360FB692E
:102360000133FB61FB690F2B7FF690AE00BF243772
:10237000BD4680BC704700BF0038024000380140B5
:10238000000002400004024000080240000C02402D
:10239000001002400014024000180240001C0240DD
:1023A000003C014080B483B000AF78600B467B8076
:1023B00013467B707B78002B03D07A887B689A6108
:1023C00003E07B881A047B689A6100BF0C37BD4626
:1023D00080BC7047F0B58FB00AAF78607B68002B87
:1023E00001D1012303E17B6893F8BD33DBB2002BFD
:1023F00006D17B68002283F8BC23786811F0B0FD19
:102400007B68032283F8BD237B681B68184602F0B3
:1024100057FE7B681B683B607E686D4606F11004C2
:102420000FCC0FC50FCC0FC594E8030085E803005F
:10243000331D0ECB386802F02FFD0346002B05D06C
:102440007B68022283F8BD230123D0E07B681B68F0
:102450000021184602F044FE0023FB734AE0FA7B99
:1024600079681346DB009B1A9B000B443D33012225
:102470001A70FA7B79681346DB009B1A9B000B44A9
:102480003C33FA7B1A70FA7BFB7B98B2796813466F
:10249000DB009B1A9B000B44423302461A80FA7BF6
:1024A00079681346DB009B1A9B000B443F330022E4
:1024B0001A70FA7B79681346DB009B1A9B000B4469
:1024C000443300221A60FA7B79681346DB009B1ABA
:1024D0009B000B44483300221A60FA7B796813464C
:1024E000DB009B1A9B000B44503300221A60FB7BDD
:1024F0000133FB73FA7B7B685B689A42AFD300239E
:10250000FB7344E0FA7B79681346DB009B1A9B005F
:102510000B4403F2FD1300221A70FA7B796813460C
:10252000DB009B1A9B000B4403F5FE73FA7B1A70C9
:10253000FA7B79681346DB009B1A9B000B4403F27D
:10254000FF1300221A70FA7B79681346DB009B1A8E
:102550009B000B4403F5017300221A60FA7B796833
:102560001346DB009B1A9B000B4403F50273002209
:102570001A60FA7B79681346DB009B1A9B000B44B8
:1025800003F5047300221A60FB7B0133FB73FA7BB3
:102590007B685B689A42B5D37B681B683B607E684A
:1025A0006D4606F110040FCC0FC50FCC0FC594E893
:1025B000030085E80300331D0ECB386802F0BAFD36
:1025C0000346002B05D07B68022283F8BD2301233C
:1025D0000DE07B68002283F838207B68012283F8B5
:1025E000BD237B681B68184603F05BFD002318467B
:1025F0001437BD46F0BD80B584B000AF78607B680D
:102600001B68FB607B6893F8BC33012B01D102236C
:1026100020E07B68012283F8BC237B689B6A012B46
:1026200009D17B689B69012B05D0FB689B6B43F448
:102630008032FB689A637B681B68184603F019FDBB
:102640007B681B68184602F02BFD7B68002283F82C
:10265000BC23002318461037BD4680BD90B58DB011
:1026600000AF78607B681B683B623B6AFB610023BC
:102670007B627B681B68184603F0B9FD0346002B9C
:1026800040F090837B681B68184603F022FD0346E8
:10269000002B00F086837B681B68184603F019FD49
:1026A000034603F00203022B07D17B681B685A69BB
:1026B0007B681B6802F002025A617B681B6818463F
:1026C00003F007FD034603F40023B3F5002F7BD18D
:1026D00000237B627B681B68184603F00CFDB86220
:1026E0006FE0BB6A03F00103002B64D07B681B68BA
:1026F0007A6AD2B21146184603F02FFDB861BB6961
:1027000003F00103002B0CD07B6A5A01FB691344D0
:1027100003F530631A4601239360796A786800F004
:102720000FFEBB6903F00803002B0CD0796A7868B0
:1027300000F00EFF7B6A5A01FB69134403F5306316
:102740001A4608239360BB6903F01003002B08D0DE
:102750007B6A5A01FB69134403F530631A46102360
:102760009360BB6903F02003002B15D07B681B69C5
:10277000012B08D17B6818687B6803F571731A46D2
:10278000012103F075FD7B6A5A01FB69134403F5CF
:1027900030631A4620239360BB6903F40053002B77
:1027A00009D07B6A5A01FB69134403F530631A466A
:1027B0004FF4005393607B6A01337B62BB6A5B0812
:1027C000BB62BB6A002B8CD17B681B68184603F088
:1027D00080FC034603F48023B3F5802F40F0C480CF
:1027E0007B681B68184603F09FFCB86200237B627D
:1027F000B6E0BB6A03F00103002B00F0AB807B68FE
:102800001B687A6AD2B21146184603F0C3FCB8615D
:10281000BB6903F00103002B5BD07B6A03F00F035D
:10282000012202FA03F37B61FB6903F500635A6B33
:102830007B69DB43F96901F5006113404B637B6AF7
:102840005A01FB69134403F510631A460123936090
:102850007B681B69012B1BD179687A6A1346DB0000
:102860009B1A9B000B444833196878687A6A1346B0
:10287000DB009B1A9B00034444331B6819447868AF
:102880007A6A1346DB009B1A9B00034448331960A5
:102890007B6ADBB21946786811F0DBFB7B681B6949
:1028A000012B16D17B6A002B13D179687A6A134603
:1028B000DB009B1A9B000B4450331B68002B08D194
:1028C0007B6818687B6803F571731A46012103F071
:1028D000CFFCBB6903F00803002B08D07B6A5A01C8
:1028E000FB69134403F510631A4608239360BB6920
:1028F00003F01003002B08D07B6A5A01FB691344D4
:1029000003F510631A4610239360BB6903F040037C
:10291000002B08D07B6A5A01FB69134403F510634E
:102920001A4640239360BB6903F00203002B08D0D2
:102930007B6A5A01FB69134403F510631A460223AC
:102940009360BB6903F08003002B03D0796A786839
:1029500000F068FC7B6A01337B62BB6A5B08BB6288
:10296000BB6A002B7FF445AF7B681B68184603F0F9
:10297000B0FB034603F00043B3F1004F22D1FB69E3
:1029800003F500635B68FA6902F5006223F0010356
:1029900053607B6893F8F433012B08D17B680022E5
:1029A00083F8F4230021786800F088FE02E078685C
:1029B00011F0C6FB7B681B685A697B681B6802F0D4
:1029C00000425A617B681B68184603F082FB03468D
:1029D00003F40063B3F5006F12D1FB6903F50063E4
:1029E0009B6803F00103012B02D1786811F082FB90
:1029F0007B681B685A697B681B6802F400625A6135
:102A00007B681B68184603F064FB034603F480539D
:102A1000B3F5805F40F0A780FB6903F500635B6856
:102A2000FA6902F5006223F0010353607B681B68BA
:102A30001021184602F0F0FC0023FB6236E0FB6A2E
:102A40005A01FB69134403F510631A464FF67F33AE
:102A50009360FB6A5A01FB69134403F510631B681A
:102A6000FA6A5101FA690A4402F5106223F400136C
:102A70001360FB6A5A01FB69134403F530631A467D
:102A80004FF67F339360FB6A5A01FB69134403F5E9
:102A900030631B68FA6A5101FA690A4402F5306230
:102AA00023F400131360FB6A0133FB627B685B68ED
:102AB000FA6A9A42C3D3FB6903F50063DB69FA69DA
:102AC00002F5006243F00113D3617B681B6B002B9E
:102AD00016D0FB6903F50063D3F88430FA6902F578
:102AE000006243F00B03C2F88430FB6903F5006316
:102AF0005B6CFA6902F5006243F00B03536415E066
:102B0000FB6903F500635B69FA6902F5006243F44F
:102B1000005343F02B035361FB6903F500631B690A
:102B2000FA6902F5006243F00B031361FB6903F5D8
:102B300000631B68FA6902F5006223F4FE63136008
:102B40007B6818687B681B69D9B27B6803F5717371
:102B50001A4603F08DFB7B681B685A697B681B680B
:102B600002F480525A617B681B68184603F0B1FA80
:102B7000034603F40053B3F5005F2AD17B681B685A
:102B8000184603F041FB7B681B68184602F0A0FC66
:102B90000346002B03D17B680022DA6002E07B68E9
:102BA0000322DA607B681C6801F094F901467B68B7
:102BB000DB68DBB21A46204602F0D0F9786811F0E3
:102BC00070FA7B681B685A697B681B6802F40052C4
:102BD0005A617B681B68184603F07BFA034603F0D2
:102BE0001003102B61D17B681B689A697B681B6896
:102BF00022F010029A613B6A1B6A3B613B6903F059
:102C00000F021346DB009B1A9B0003F5FC737A68E6
:102C100013440433FB603B695B0C03F00F03022B8E
:102C200024D13A6947F6F0731340002B35D0FB6886
:102C3000D9683B691B099BB2C3F30A039BB21A46CE
:102C4000386A03F0F7F8FB68DA683B691B09C3F3DD
:102C50000A031A44FB68DA60FB689A693B691B093E
:102C6000C3F30A031A44FB689A6116E03B695B0CE4
:102C700003F00F03062B10D17B6803F57173082254
:102C80001946386A03F0D6F8FB689A693B691B0954
:102C9000C3F30A031A44FB689A617B681B689A694C
:102CA0007B681B6842F010029A617B681B681846BB
:102CB00003F00FFA034603F00803082B0AD17868E3
:102CC00011F0E1F97B681B685A697B681B6802F0A8
:102CD00008025A617B681B68184603F0FAF903463C
:102CE00003F48013B3F5801F0DD17B6ADBB2194664
:102CF000786811F045FA7B681B685A697B681B6825
:102D000002F480125A617B681B68184603F0E1F9EF
:102D1000034603F40013B3F5001F0DD17B6ADBB249
:102D20001946786811F01AFA7B681B685A697B6843
:102D30001B6802F400125A617B681B68184603F096
:102D4000C8F9034603F08043B3F1804F0AD1786895
:102D500011F028FA7B681B685A697B681B6802F0CF
:102D600080425A617B681B68184603F0B2F903463B
:102D700003F00403042B15D17B681B685B683B617F
:102D80003B6903F00403002B02D0786811F018FAB5
:102D90007B681B6859687B681B683A690A435A60FC
:102DA00000E000BF3437BD4690BD80B582B000AFB3
:102DB00078600B46FB707B6893F8BC33012B01D124
:102DC000022313E07B68012283F8BC237B68FA7836
:102DD00083F838207B681B68FA781146184603F0A0
:102DE00023F97B68002283F8BC23002318460837A8
:102DF000BD4680BD80B584B000AF786008461146FE
:102E00001A460346FB700B463B801346BB700023FB
:102E1000FB7297F90330002B0FDAFB7803F00F02F7
:102E20001346DB009B1A9B0038337A681344043343
:102E3000FB60FB6801225A700FE0FB7803F00F0281
:102E40001346DB009B1A9B0003F5FC737A6813445E
:102E50000433FB60FB6800225A70FB7803F00F0319
:102E6000DAB2FB681A703A88FB689A60FB68BA7835
:102E7000DA70FB685B78002B04D0FB681B789AB291
:102E8000FB68DA80BB78022B02D1FB6800221A7142
:102E90007B6893F8BC33012B01D102230EE07B68E1
:102EA000012283F8BC237B681B68F968184602F08E
:102EB00033FB7B68002283F8BC23FB7A184610376B
:102EC000BD4680BD80B584B000AF78600B46FB7016
:102ED00097F90330002B0FDAFB7803F00F0213464B
:102EE000DB009B1A9B0038337A6813440433FB6081
:102EF000FB6801225A700FE0FB7803F00F021346C3
:102F0000DB009B1A9B0003F5FC737A6813440433BF
:102F1000FB60FB6800225A70FB7803F00F03DAB203
:102F2000FB681A707B6893F8BC33012B01D1022334
:102F30000EE07B68012283F8BC237B681B68F9687C
:102F4000184602F06FFB7B68002283F8BC23002345
:102F500018461037BD4680BD80B586B000AFF8601A
:102F60007A603B600B46FB72FB7A03F00F0213465C
:102F7000DB009B1A9B0003F5FC73FA6813440433CF
:102F80007B617B697A68DA607B693A685A617B6940
:102F900000229A617B6900225A70FB7A03F00F03CA
:102FA000DAB27B691A70FB681B69012B02D17A685F
:102FB0007B691A61FB7A03F00F03002B09D1FB68D0
:102FC0001868FB681B69DBB21A46796902F0BCFD20
:102FD00008E0FB681868FB681B69DBB21A46796970
:102FE00002F0A4FB002318461837BD4680BD80B40C
:102FF00083B000AF78600B46FB70FB7803F00F02E4
:1030000079681346DB009B1A9B000B4403F505739C
:103010001B6818460C37BD4680BC704780B586B02B
:1030200000AFF8607A603B600B46FB72FB7A03F0FE
:103030000F021346DB009B1A9B003833FA681344D7
:1030400004337B617B697A68DA607B693A685A612C
:103050007B6900229A617B6901225A70FB7A03F036
:103060000F03DAB27B691A70FB681B69012B02D16E
:103070007A687B691A61FB7A03F00F03002B09D190
:10308000FB681868FB681B69DBB21A46796902F0B5
:103090005BFD08E0FB681868FB681B69DBB21A4639
:1030A000796902F043FB002318461837BD4680BDFE
:1030B00080B584B000AF78600B46FB70FB7803F0FE
:1030C0000F027B685B689A4201D9012350E097F9AF
:1030D0000330002B0FDAFB7803F00F021346DB00FE
:1030E0009B1A9B0038337A6813440433FB60FB68F7
:1030F00001225A700DE0FA781346DB009B1A9B0000
:1031000003F5FC737A6813440433FB60FB68002208
:103110005A70FB6801229A70FB7803F00F03DAB251
:10312000FB681A707B6893F8BC33012B01D1022332
:103130001EE07B68012283F8BC237B681B68F9686A
:10314000184602F09FFEFB7803F00F03002B0AD114
:103150007B6818687B681B69D9B27B6803F571735B
:103160001A4603F085F87B68002283F8BC2300230D
:1031700018461037BD4680BD80B584B000AF78607A
:103180000B46FB70FB7803F00F027B685B689A428A
:1031900001D9012342E097F90330002B0FDAFB78C5
:1031A00003F00F021346DB009B1A9B0038337A684A
:1031B00013440433FB60FB6801225A700FE0FB7874
:1031C00003F00F021346DB009B1A9B0003F5FC7310
:1031D0007A6813440433FB60FB6800225A70FB6872
:1031E00000229A70FB7803F00F03DAB2FB681A70C2
:1031F0007B6893F8BC33012B01D102230EE07B687E
:10320000012283F8BC237B681B68F968184602F02A
:10321000A6FE7B68002283F8BC23002318461037E3
:10322000BD4680BD80B58AB002AF786039607B68EA
:103230001B687B617B693B613A681346DB009B1A24
:103240009B0038337A6813440433FB60FB689A6947
:10325000FB685B699A4201D901236CE0FB685A69FB
:10326000FB689B69D31AFB61FB689B68FA699A4209
:1032700002D9FB689B68FB61FB6903339B08BB6158
:103280002BE0FB685A69FB689B69D31AFB61FB68FA
:103290009B68FA699A4202D9FB689B68FB61FB69EB
:1032A00003339B08BB61FB68D9683B68DAB2FB69F2
:1032B00098B27B681B69DBB200930346786902F021
:1032C00085FDFB68DA68FB691A44FB68DA60FB6815
:1032D0009A69FB691A44FB689A613B685A013B6929
:1032E000134403F510639B699BB2BA699A4209D8EB
:1032F000FB689A69FB685B699A4203D2FB685B6969
:10330000002BBED1FB685A69FB689B699A4211D8B1
:103310003B6803F00F03012202FA03F3BB603B6931
:1033200003F500635A6BBB68DB43396901F5006143
:1033300013404B63002318462037BD4680BD000074
:1033400080B586B000AF786039607B681B687B61B0
:103350007B693B617B693C3304331B68FB603B68E2
:103360005A013B69134403F530639B68BB607B687B
:103370001B69012B40F0B380BB6803F00803002BEE
:1033800028D0FB68704A93420ED9BB6803F400430F
:10339000002B09D03B685A013B69134403F53063A5
:1033A0001A464FF400439360786810F025FE7B685E
:1033B00018687B6803F571731A46012102F058FF03
:1033C0003B685A013B69134403F530631A460823EE
:1033D0009360B3E0BB6803F02003002B09D03B6887
:1033E0005A013B69134403F530631A462023936066
:1033F000A4E0BB6803F02803002B40F09F80FB682B
:10340000514A93420FD9BB6803F40043002B0AD002
:103410003B685A013B69134403F530631A464FF485
:10342000004393608AE079683A681346DB009B1A90
:103430009B000B4403F501731A683B6859013B6913
:103440000B4403F530631B69C3F31203D11A786888
:103450003A681346DB009B1A9B00034403F505738F
:10346000196079683A681346DB009B1A9B000B448D
:1034700003F50273196878683A681346DB009B1AF3
:103480009B00034403F501731B68194478683A688C
:103490001346DB009B1A9B00034403F5027319607B
:1034A0003B68DBB21946786810F0B8FD3B68002B2A
:1034B00044D179683A681346DB009B1A9B000B44A1
:1034C00003F504731B68002B38D17B6818687B6890
:1034D00003F571731A46012102F0CAFE2EE0FB6863
:1034E0001A4A934224D1BB6803F40043002B0AD04C
:1034F0003B685A013B69134403F530631A464FF4A5
:10350000004393601AE0BB6803F02003002B08D04F
:103510003B685A013B69134403F530631A46202384
:1035200093603B68DBB21946786810F077FD05E0E0
:103530003B68DBB21946786810F070FD002318462E
:103540001837BD4680BD00BF0A30544F0A31544F72
:1035500080B586B000AF786039607B681B687B619E
:103560007B693B617B693C3304331B68FB603B68D0
:103570005A013B69134403F530639B68BB607B6869
:103580001B69012B13D1FB681F4A934222D9BB68E8
:1035900003F40043002B1DD03B685A013B691344E0
:1035A00003F530631A464FF40043936012E0FB6862
:1035B000164A93420ED1BB6803F40043002B09D096
:1035C0003B685A013B69134403F530631A464FF4D4
:1035D00000439360786810F00FFDFB680A4A93423D
:1035E0000CD97B681B69012B08D17B6818687B6844
:1035F00003F571731A46012102F03AFE00231846C2
:103600001837BD4680BD00BF0A30544F0A31544FB1
:1036100080B485B000AF78600B46FB7013463B80EA
:103620007B681B685B6ABB60FB78002B07D13B881B
:1036300019047B681B68BA680A439A6228E07B68B1
:103640001B689B6A1B0CBA681344BB600023FB73A6
:103650000DE07B681A68FB7B40339B0013445B687A
:103660001B0CBA681344BB60FB7B0133FB73FA7B12
:10367000FB78013B9A42ECD33B8818047B681968BD
:10368000FB78013BBA68024340339B000B445A600D
:10369000002318461437BD4680BC704780B483B001
:1036A00000AF78600B467B807B681B687A885A6223
:1036B000002318460C37BD4680BC704780B483B0E9
:1036C00000AF78600B46FB7000BF0C37BD4680BC76
:1036D0007047000080B586B000AF78607B68002B33
:1036E00001D101232DE27B681B6803F00103002B4D
:1036F00075D0A34B9B6803F00C03042B0CD0A04B9C
:103700009B6803F00C03082B12D19D4B5B6803F4FC
:103710008003B3F5800F0BD1994B1B6803F4003382
:10372000002B5BD07B685B68002B57D1012308E23C
:103730007B685B68B3F5803F06D1914B1B68904A6C
:1037400043F4803313601DE07B685B68B3F5A02F02
:103750000CD18B4B1B688A4A43F480231360884B3F
:103760001B68874A43F4803313600BE0844B1B686B
:10377000834A23F480331360814B1B68804A23F40F
:10378000802313607B685B68002B13D0FEF736FB49
:10379000386108E0FEF732FB02463B69D31A642B1E
:1037A00001D90323CDE1764B1B6803F40033002BD2
:1037B000F0D014E0FEF722FB386108E0FEF71EFBB4
:1037C00002463B69D31A642B01D90323B9E16C4B40
:1037D0001B6803F40033002BF0D100E000BF7B68CE
:1037E0001B6803F00203002B63D0654B9B6803F05A
:1037F0000C03002B0BD0624B9B6803F00C03082BCF
:103800001CD15F4B5B6803F48003002B16D15C4B2B
:103810001B6803F00203002B05D07B68DB68012BDB
:1038200001D001238DE1564B1B6823F0F8027B6821
:103830001B69DB00524913430B603AE07B68DB688D
:10384000002B20D04F4B01221A60FEF7D7FA3861C7
:1038500008E0FEF7D3FA02463B69D31A022B01D9DE
:1038600003236EE1464B1B6803F00203002BF0D0EC
:10387000434B1B6823F0F8027B681B69DB0040495F
:1038800013430B6015E03F4B00221A60FEF7B6FAB7
:10389000386108E0FEF7B2FA02463B69D31A022B00
:1038A00001D903234DE1364B1B6803F00203002BC3
:1038B000F0D17B681B6803F00803002B30D07B68D5
:1038C0005B69002B16D0304B01221A60FEF796FA86
:1038D000386108E0FEF792FA02463B69D31A022BE0
:1038E00001D903232DE1264B5B6F03F00203002B6C
:1038F000F0D015E0244B00221A60FEF77FFA386101
:1039000008E0FEF77BFA02463B69D31A022B01D985
:10391000032316E11A4B5B6F03F00203002BF0D177
:103920007B681B6803F00403002B00F0A0800023D9
:10393000FB75134B1B6C03F08053002B0FD100233E
:10394000FB600F4B1B6C0E4A43F0805313640C4B0F
:103950001B6C03F08053FB60FB680123FB750B4B72
:103960001B6803F48073002B21D1084B1B68074AA6
:1039700043F480731360FEF741FA386111E000BF31
:103980000038024000004742800E4742007000406D
:10399000FEF734FA02463B69D31A022B01D90323FE
:1039A000CFE06A4B1B6803F48073002BF0D07B6878
:1039B0009B68012B06D1664B1B6F654A43F00103E0
:1039C00013671CE07B689B68052B0CD1604B1B6F59
:1039D0005F4A43F0040313675D4B1B6F5C4A43F07F
:1039E000010313670BE05A4B1B6F594A23F0010385
:1039F0001367574B1B6F564A23F0040313677B680A
:103A00009B68002B15D0FEF7F9F938610AE0FEF744
:103A1000F5F902463B69D31A41F28832934201D943
:103A200003238EE04A4B1B6F03F00203002BEED002
:103A300014E0FEF7E3F938610AE0FEF7DFF9024629
:103A40003B69D31A41F28832934201D9032378E0CB
:103A50003F4B1B6F03F00203002BEED1FB7D012BCC
:103A600005D13B4B1B6C3A4A23F0805313647B68AF
:103A70009B69002B64D0364B9B6803F00C03082B2A
:103A80005CD07B689B69022B41D1324B00221A60CB
:103A9000FEF7B4F9386108E0FEF7B0F902463B6979
:103AA000D31A022B01D903234BE0294B1B6803F0E7
:103AB0000073002BF0D17B68DA697B681B6A1A43BC
:103AC0007B685B6A9B011A437B689B6A5B08013BCE
:103AD0001B041A437B68DB6A1B061D4913434B60BA
:103AE0001C4B01221A60FEF789F9386108E0FEF7E5
:103AF00085F902463B69D31A022B01D9032320E042
:103B0000134B1B6803F00073002BF0D018E0114B2F
:103B100000221A60FEF772F9386108E0FEF76EF9CC
:103B200002463B69D31A022B01D9032309E0084B53
:103B30001B6803F00073002BF0D101E0012300E0CB
:103B4000002318461837BD4680BD00BF00700040F6
:103B5000003802406000474280B584B000AF786012
:103B600039607B68002B01D10123CAE0674B1B68D9
:103B700003F00F033A689A420CD9644B3A68D2B208
:103B80001A70624B1B6803F00F033A689A4201D027
:103B90000123B6E07B681B6803F00203002B20D0F2
:103BA0007B681B6803F00403002B05D0584B9B680F
:103BB000574A43F4E05393607B681B6803F00803A3
:103BC000002B05D0524B9B68514A43F460439360ED
:103BD0004F4B9B6823F0F0027B689B684C49134372
:103BE0008B607B681B6803F00103002B44D07B686B
:103BF0005B68012B07D1464B1B6803F40033002B95
:103C000019D101237DE07B685B68022B03D07B68C0
:103C10005B68032B07D13E4B1B6803F00073002B3E
:103C200009D101236DE03A4B1B6803F00203002B1E
:103C300001D1012365E0364B9B6823F003027B68CA
:103C40005B68334913438B60FEF7D8F8F8600AE0ED
:103C5000FEF7D4F80246FB68D31A41F28832934249
:103C600001D903234DE02A4B9B6803F00C027B68CB
:103C70005B689B009A42EBD1244B1B6803F00F0357
:103C80003A689A420CD2214B3A68D2B21A701F4B52
:103C90001B6803F00F033A689A4201D0012330E019
:103CA0007B681B6803F00403002B08D0184B9B684B
:103CB00023F4E0527B68DB68154913438B607B6813
:103CC0001B6803F00803002B09D0114B9B6823F4F9
:103CD00060427B681B69DB000D4913438B6000F079
:103CE0001DF801460A4B9B681B0903F00F03094AA4
:103CF000D35C21FA03F3084A13600020FEF73CF876
:103D0000002318461037BD4680BD00BF003C02406E
:103D100000380240F4AD01081C0100202DE9F043F9
:103D200085B000AF00237B600023FB6000233B6075
:103D30000023BB60644B9B6803F00C03042B07D08B
:103D4000082B08D0002B40F0B680604BBB60B5E07C
:103D50005F4BBB60B2E05C4B5B6803F03F037B6092
:103D6000594B5B6803F48003002B4CD0564B5B68C7
:103D70009B094FF0000440F2FF114FF0000203EAEC
:103D8000010804EA020941464A464FF000034FF099
:103D90000004540144EAD1644B0119462246B1EBB8
:103DA000080162EB09024FF000034FF00004940198
:103DB00044EA91648B015B1A64EB02044FF000014A
:103DC0004FF00002E20042EA5372D9000B4614465B
:103DD00013EB080344EB09044FF000014FF000021D
:103DE000620242EAD35259020B4614461846214653
:103DF0007B684FF000041A462346FCF73FFE03465B
:103E00000C46FB6049E0304B5B689B094FF00004B7
:103E100040F2FF114FF0000203EA010504EA020636
:103E2000294632464FF000034FF00004540144EAA3
:103E3000D1644B0119462246491B62EB06024FF042
:103E400000034FF00004940144EA91648B015B1A73
:103E500064EB02044FF000014FF00002E20042EA7E
:103E60005372D9000B4614465B1946EB04044FF01D
:103E700000014FF00002A20242EA935299020B465F
:103E80001446184621467B684FF000041A46234624
:103E9000FCF7F4FD03460C46FB600B4B5B681B0C08
:103EA00003F0030301335B003B60FA683B68B2FB3D
:103EB000F3F3BB6002E0054BBB6000BFBB68184674
:103EC0001437BD46BDE8F083003802400024F400FA
:103ED00000127A0080B400AF024B1B681846BD4642
:103EE00080BC70471C01002080B500AFFFF7F2FFD7
:103EF0000146054B9B689B0A03F00703034AD35C0A
:103F000021FA03F3184680BD0038024004AE0108D0
:103F100080B500AFFFF7DEFF0146054B9B685B0BEA
:103F200003F00703034AD35C21FA03F3184680BD6C
:103F30000038024004AE010880B582B000AF78605E
:103F40007B68002B01D1012356E07B6800229A6236
:103F50007B6893F85130DBB2002B06D17B680022DE
:103F600083F8502078680FF071FD7B68022283F897
:103F700051207B681B681A687B681B6822F040022E
:103F80001A607B685A687B689B681A437B68DB68A9
:103F90001A437B681B691A437B685B691A437B6819
:103FA0009B6903F400731A437B68DB691A437B68DF
:103FB0001B6A42EA03017B689A6A7B681B680A43B2
:103FC0001A607B689B691B0C03F004017B685A6ACA
:103FD0007B681B680A435A607B681B68DA697B68E8
:103FE0001B6822F40062DA617B6800225A657B68F4
:103FF000012283F85120002318460837BD4680BDB2
:1040000080B588B000AFF860B9603B601346FB80B4
:104010000023FB77FB6893F85030012B01D102237A
:104020001EE1FB68012283F85020FDF7E7FEB8612E
:10403000FB88FB82FB6893F85130DBB2012B02D086
:104040000223FB7703E1BB68002B02D0FB88002B27
:1040500002D10123FB77FAE0FB68032283F85120A9
:10406000FB6800225A65FB68BA681A63FB68FA8825
:104070009A86FB68FA88DA86FB6800229A63FB68F6
:1040800000229A87FB680022DA87FB6800225A64C4
:10409000FB6800221A64FB689B68B3F5004F07D1E8
:1040A000FB681B681A68FB681B6842F480421A6050
:1040B000FB681B681B6803F04003402B07D0FB68BC
:1040C0001B681A68FB681B6842F040021A60FB68B4
:1040D000DB68B3F5006F4BD1FB685B68002B02D047
:1040E000FB8A012B3ED1FB681B6B1A88FB681B689F
:1040F000DA60FB681B6B9A1CFB681A63FB68DB8E3B
:104100009BB2013B9AB2FB68DA862BE0FB681B6826
:104110009B6803F00203022B12D1FB681B6B1A8809
:10412000FB681B68DA60FB681B6B9A1CFB681A63F0
:10413000FB68DB8E9BB2013B9AB2FB68DA8611E02A
:10414000FDF75CFE0246BB69D31A3A689A4203D86F
:104150003B68B3F1FF3F02D13B68002B02D1032340
:10416000FB7774E0FB68DB8E9BB2002BCED14CE07A
:10417000FB685B68002B02D0FB8A012B40D1FB68F7
:104180001A6BFB681B680C3312781A70FB681B6B88
:104190005A1CFB681A63FB68DB8E9BB2013B9AB228
:1041A000FB68DA862CE0FB681B689B6803F002035F
:1041B000022B13D1FB681A6BFB681B680C33127857
:1041C0001A70FB681B6B5A1CFB681A63FB68DB8E5A
:1041D0009BB2013B9AB2FB68DA8611E0FDF70EFE56
:1041E0000246BB69D31A3A689A4203D83B68B3F1D6
:1041F000FF3F02D13B68002B02D10323FB7726E06F
:10420000FB68DB8E9BB2002BCDD1BA693968F868A8
:1042100000F043FA0346002B02D0FB6820225A65C7
:10422000FB689B68002B0AD100233B61FB681B687D
:10423000DB683B61FB681B689B683B613B69FB6813
:104240005B6D002B02D00123FB7700E000BFFB6811
:10425000012283F85120FB68002283F85020FB7F65
:1042600018462037BD4680BD80B58CB000AFF860E1
:10427000B9607A607B800123FB62002387F82B30D2
:10428000FB6893F85030012B01D102238AE1FB68CF
:10429000012283F85020FDF7B1FD7862FB6893F8A6
:1042A000513087F82330FB685B68FB617B887B8338
:1042B00097F82330012B0FD0FB69B3F5827F07D12C
:1042C000FB689B68002B03D197F82330042B03D0A5
:1042D000022387F82B305BE1BB68002B05D07B689D
:1042E000002B02D07B88002B03D1012387F82B30D1
:1042F0004EE1FB6893F85130DBB2042B03D0FB682E
:10430000052283F85120FB6800225A65FB687A6811
:104310009A63FB687A88DA87FB687A889A87FB68F1
:10432000BA681A63FB687A88DA86FB687A889A86A4
:10433000FB6800221A64FB6800225A64FB681B6851
:104340001B6803F04003402B07D0FB681B681A680A
:10435000FB681B6842F040021A60FB68DB68B3F53B
:10436000006F78D1FB685B68002B02D07B8B012B40
:1043700066D1FB681B6B1A88FB681B68DA60FB68F8
:104380001B6B9A1CFB681A63FB68DB8E9BB2013BBC
:104390009AB2FB68DA8653E0FB681B689B6803F0FF
:1043A0000203022B1BD1FB68DB8E9BB2002B16D0C5
:1043B000FB6A012B13D1FB681B6B1A88FB681B6817
:1043C000DA60FB681B6B9A1CFB681A63FB68DB8E68
:1043D0009BB2013B9AB2FB68DA860023FB62FB6862
:1043E0001B689B6803F00103012B19D1FB68DB8F6D
:1043F0009BB2002B14D0FB681B68DA68FB689B6BD0
:1044000092B21A80FB689B6B9A1CFB689A63FB68EC
:10441000DB8F9BB2013B9AB2FB68DA870123FB6218
:10442000FDF7ECFC02467B6AD31ABA6B9A4207D8B6
:10443000BB6BB3F1FF3F03D0032387F82B30A7E01A
:10444000FB68DB8E9BB2002BA6D1FB68DB8F9BB297
:10445000002BA1D17CE0FB685B68002B02D07B8B3A
:10446000012B6BD1FB681A6BFB681B680C3312784D
:104470001A70FB681B6B5A1CFB681A63FB68DB8EA7
:104480009BB2013B9AB2FB68DA8657E0FB681B6877
:104490009B6803F00203022B1CD1FB68DB8E9BB2EE
:1044A000002B17D0FB6A012B14D1FB681A6BFB6839
:1044B0001B680C3312781A70FB681B6B5A1CFB6864
:1044C0001A63FB68DB8E9BB2013B9AB2FB68DA860B
:1044D0000023FB62FB681B689B6803F00103012B50
:1044E00019D1FB68DB8F9BB2002B14D0FB681B68D3
:1044F000DA68FB689B6BD2B21A70FB689B6B5A1C24
:10450000FB689A63FB68DB8F9BB2013B9AB2FB6846
:10451000DA870123FB62FDF771FC02467B6AD31A3E
:10452000BA6B9A4203D8BB6BB3F1FF3F02D1BB6BAE
:10453000002B03D1032387F82B3029E0FB68DB8EA7
:104540009BB2002BA2D1FB68DB8F9BB2002B9DD1CD
:104550007A6AB96BF86800F0A0F80346002B06D021
:10456000012387F82B30FB6820225A6510E0FB6896
:104570009B68002B0BD100237B61FB681B68DB6809
:104580007B61FB681B689B687B617B6900E000BF07
:10459000FB68012283F85120FB68002283F8502039
:1045A00097F82B3018463037BD4680BD80B483B0B5
:1045B00000AF78607B6893F85130DBB218460C3757
:1045C000BD4680BC704780B584B000AFF860B9606C
:1045D0003B601346FB714CE03B68B3F1FF3F48D0B2
:1045E000FDF70CFC0246BB69D31A3A689A4202D91D
:1045F0003B68002B3DD1FB681B685A68FB681B6851
:1046000022F0E0025A60FB685B68B3F5827F11D14B
:10461000FB689B68B3F5004F04D0FB689B68B3F55B
:10462000806F07D1FB681B681A68FB681B6822F063
:1046300040021A60FB689B6AB3F5005F0FD1FB680C
:104640001B681A68FB681B6822F400521A60FB683A
:104650001B681A68FB681B6842F400521A60FB680A
:10466000012283F85120FB68002283F850200323A5
:104670000FE0FB681B689A68BB681340BA689A42EF
:104680000CBF01230023DBB21A46FB799A42A3D167
:10469000002318461037BD4680BD80B586B002AFF6
:1046A000F860B9607A607B680093BB680022802163
:1046B000F868FFF788FF0346002B07D0FB685B6DA7
:1046C00043F02002FB685A65032300E000231846EC
:1046D0001037BD4680BD80B582B000AF78607B6882
:1046E000002B01D101233FE07B6893F83930DBB226
:1046F000002B06D17B68002283F8382078680FF001
:10470000EDF97B68242283F839207B681B68DA681E
:104710007B681B6822F40052DA60786800F0B2F916
:104720007B681B681A697B681B6822F490421A61D7
:104730007B681B685A697B681B6822F02A025A61F1
:104740007B681B68DA687B681B6842F40052DA6099
:104750007B680022DA637B68202283F839207B683B
:10476000202283F83A20002318460837BD4680BD32
:1047700080B588B002AFF860B9603B601346FB803B
:1047800000237B61FB6893F83930DBB2202B40F0CB
:104790008380BB68002B02D0FB88002B01D1012352
:1047A0007BE0FB6893F83830012B01D1022374E0E1
:1047B000FB68012283F83820FB680022DA63FB687B
:1047C000212283F83920FDF719FB7861FB68FA880C
:1047D0009A84FB68FA88DA8442E0FB68DB8C9BB23F
:1047E000013B9AB2FB68DA84FB689B68B3F5805F93
:1047F00022D13B6800937B6900228021F86800F099
:10480000F6F80346002B01D0032346E0BB683B616A
:104810003B691B881A46FB681B68C2F308025A6092
:10482000FB681B69002B03D1BB680233BB6017E038
:10483000BB680133BB6013E03B6800937B690022D7
:104840008021F86800F0D3F80346002B01D0032341
:1048500023E0BB685A1CBA601A78FB681B685A6070
:10486000FB68DB8C9BB2002BB7D13B6800937B6964
:1048700000224021F86800F0BAF80346002B01D06E
:1048800003230AE0FB68202283F83920FB6800221A
:1048900083F83820002300E0022318461837BD466D
:1048A00080BD80B588B002AFF860B9603B60134648
:1048B000FB8000237B61FB6893F83A30DBB2202B4E
:1048C00040F09080BB68002B02D0FB88002B01D108
:1048D000012388E0FB6893F83830012B01D10223D3
:1048E00081E0FB68012283F83820FB680022DA634C
:1048F000FB68222283F83A20FDF780FA7861FB6892
:10490000FA889A85FB68FA88DA855CE0FB68DB8DBB
:104910009BB2013B9AB2FB68DA85FB689B68B3F5F2
:10492000805F2BD13B6800937B6900222021F868CF
:1049300000F05DF80346002B01D0032353E0BB6871
:104940003B61FB681B69002B0CD1FB681B685B6833
:104950009BB2C3F308039AB23B691A80BB68023367
:10496000BB6030E0FB681B685B689BB2DBB29AB24D
:104970003B691A80BB680133BB6024E03B6800934D
:104980007B6900222021F86800F031F80346002BF3
:1049900001D0032327E0FB681B69002B08D1FB68CB
:1049A0001B685968BB685A1CBA60CAB21A700AE020
:1049B000FB681B685B68DAB2BB68591CB96002F01F
:1049C0007F02D2B21A70FB68DB8D9BB2002B9DD1A7
:1049D000FB68202283F83A20FB68002283F8382005
:1049E000002300E0022318461837BD4680BD80B57D
:1049F00084B000AFF860B9603B601346FB712CE0F7
:104A0000BB69B3F1FF3F28D0BB69002B07D0FDF78E
:104A1000F5F902463B68D31ABA699A421DD2FB687F
:104A20001B68DA68FB681B6822F4D072DA60FB68E6
:104A30001B685A69FB681B6822F001025A61FB6817
:104A4000202283F83920FB68202283F83A20FB6873
:104A5000002283F8382003230FE0FB681B681A68E4
:104A6000BB681340BA689A420CBF01230023DBB233
:104A70001A46FB799A42C3D0002318461037BD4628
:104A800080BD0000B0B584B000AF78607B681B6863
:104A90001B6923F440517B68DA687B681B680A4312
:104AA0001A617B689A687B681B691A437B685B693B
:104AB0001A437B68DB691343FB607B681B68DB6818
:104AC00023F4164323F00C037A681268F9680B4349
:104AD000D3607B681B685B6923F440717B689A69CB
:104AE0007B681B680A435A617B68DB69B3F5004F3A
:104AF00040F0E4807B681B68AB4A934204D07B683B
:104B00001B68AA4A93426CD1FFF702FA0246134689
:104B10009B0013449A001A447B685B685B00B2FBFD
:104B2000F3F3A34AA2FB03235B091C01FFF7F0F98F
:104B3000024613469B0013449A001A447B685B6844
:104B40005B00B2FBF3F5FFF7E3F9024613469B0067
:104B500013449A001A447B685B685B00B2FBF3F372
:104B6000934AA2FB03235B09642202FB03F3EB1AC3
:104B7000DB0032338E4AA2FB03235B095B0003F4A4
:104B8000F8731C44FFF7C4F9024613469B00134414
:104B90009A001A447B685B685B00B2FBF3F5FFF791
:104BA000B7F9024613469B0013449A001A447B68E7
:104BB0005B685B00B2FBF3F37D4AA2FB03235B0956
:104BC000642202FB03F3EB1ADB003233784AA2FBC8
:104BD00003235B0903F007027B681B6822449A6089
:104BE00054E1FFF781F9024613469B0013449A00F3
:104BF0001A447B685B685B00B2FBF3F36C4AA2FB70
:104C000003235B091C01FFF76FF9024613469B0063
:104C100013449A001A447B685B685B00B2FBF3F5AF
:104C2000FFF762F9024613469B0013449A001A44A8
:104C30007B685B685B00B2FBF3F35D4AA2FB032376
:104C40005B09642202FB03F3EB1ADB003233584AA0
:104C5000A2FB03235B095B0003F4F8731C44FFF71A
:104C600043F9024613469B0013449A001A447B689A
:104C70005B685B00B2FBF3F5FFF736F902461346BB
:104C80009B0013449A001A447B685B685B00B2FB8C
:104C9000F3F3474AA2FB03235B09642202FB03F3FD
:104CA000EB1ADB003233424AA2FB03235B0903F019
:104CB00007027B681B6822449A60E7E07B681B68F8
:104CC000394A934204D07B681B68384A934271D1B9
:104CD000FFF71EF9024613469B0013449A001A443C
:104CE0007B685B689B00B2FBF3F3314AA2FB0323B2
:104CF0005B091C01FFF70CF9024613469B001344A5
:104D00009A001A447B685B689B00B2FBF3F5FFF7DF
:104D1000FFF8024613469B0013449A001A447B682E
:104D20005B689B00B2FBF3F3214AA2FB03235B0900
:104D3000642202FB03F3EB1A1B0132331C4AA2FB71
:104D400003235B0903F0F0031C44FFF7E1F802467C
:104D500013469B0013449A001A447B685B689B00CF
:104D6000B2FBF3F5FFF7D4F8024613469B00134459
:104D70009A001A447B685B689B00B2FBF3F30C4A11
:104D8000A2FB03235B09642202FB03F3EB1A1B0162
:104D90003233074AA2FB03235B0903F00F027B684F
:104DA0001B6822449A6071E0001001400014014029
:104DB0001F85EB51FFF798F8024613469B001344FA
:104DC0009A001A447B685B689B00B2FBF3F3314A9C
:104DD000A2FB03235B091C01FFF786F8024613467A
:104DE0009B0013449A001A447B685B689B00B2FBEB
:104DF000F3F5FFF779F8024613469B0013449A0037
:104E00001A447B685B689B00B2FBF3F3214AA2FB68
:104E100003235B09642202FB03F3EB1A1B01323309
:104E20001C4AA2FB03235B0903F0F0031C44FFF7B9
:104E30005BF8024613469B0013449A001A447B68B1
:104E40005B689B00B2FBF3F5FFF74EF80246134692
:104E50009B0013449A001A447B685B689B00B2FB7A
:104E6000F3F30C4AA2FB03235B09642202FB03F366
:104E7000EB1A1B013233074AA2FB03235B0903F041
:104E80000F027B681B6822449A60FFE700BF10375F
:104E9000BD46B0BD1F85EB5184B080B584B000AF76
:104EA000786007F11C0080E80E003B6B012B22D1DB
:104EB0007B689B6B23F480327B689A637B68DB683A
:104EC00023F4840323F040037A68D3607B68DB68B3
:104ED00023F440127B68DA60FB6C012B05D17B6800
:104EE000DB6843F480127B68DA60786801F01CFAB2
:104EF0000346FB731AE07B68DB6843F040027B6883
:104F0000DA60786801F010FA0346FB733B6C002B03
:104F100006D17B689B6B43F480327B689A6305E023
:104F20007B689B6B23F480327B689A63BB6A012B9E
:104F30000BD17B689B6843F006027B689A607B68B4
:104F40009B6843F020027B689A60FB7B1846103711
:104F5000BD46BDE8804004B07047000080B487B013
:104F600000AFF860B9601346FB71FB79032B65D184
:104F7000BB68414A934206D9BB68404A934202D873
:104F80000F237B6162E0BB683C4A934206D9BB6851
:104F90003B4A934202D80E237B6157E0BB68384AF4
:104FA000934206D9BB68374A934202D80D237B61EE
:104FB0004CE0BB68334A934206D9BB68324A9342FD
:104FC00002D80C237B6141E0BB682F4A934206D98B
:104FD000BB682E4A934202D80B237B6136E0BB6844
:104FE0002A4A934206D9BB68294A934202D80A2327
:104FF0007B612BE0BB68264A934206D9BB68254AF1
:10500000934202D809237B6120E0BB68214A934286
:1050100006D9BB68204A934202D808237B6115E079
:10502000BB681D4A934206D9BB681C4A934202D80A
:1050300007237B610AE006237B6107E0FB79002BF5
:1050400002D109237B6101E009237B61FB68DB68F6
:1050500023F47052FB68DA60FB68DA687B699B02B4
:1050600003F470531A43FB68DA60002318461C37B8
:10507000BD4680BC704700BFBFACD800BFE1E400B4
:10508000FF23F4007F7306019F491A01FF2C3101B1
:105090003FA44C01FF356E011FABA601FF47E8019D
:1050A00080B483B000AF78607B689B6843F00102F6
:1050B0007B689A60002318460C37BD4680BC704759
:1050C00080B483B000AF78607B689B6823F00102F6
:1050D0007B689A60002318460C37BD4680BC704739
:1050E00080B582B000AF78600B46FB707B68DB68F0
:1050F00023F0C0427B68DA60FB78012B06D17B6825
:10510000DB6843F000527B68DA600BE0FB78002B31
:1051100006D17B68DB6843F080427B68DA6001E09F
:10512000012303E03220FCF773FE00231846083702
:10513000BD4680BD84B080B586B000AF786007F111
:10514000240080E80E000023FB757B68FB600023D1
:105150003B6109E07A683B6940339B0013440022BD
:105160005A603B6901333B613B690E2BF2D9FB6C02
:10517000002B12D17B689B6B43F400127B689A630F
:105180007B689B6B23F400227B689A637B689B6B34
:1051900023F480227B689A630BE07B681B6823F40E
:1051A00000127B681A607B689B6B43F400227B686B
:1051B0009A63FB6803F560631A4600231360FB687B
:1051C00003F500631946FB6803F500631A460B6894
:1051D0001360BB6B012B0CD1FB6A002B04D10021A7
:1051E000786800F05DF908E00121786800F058F96E
:1051F00003E00321786800F053F91021786800F08B
:105200000BF90346002B01D00123FB75786800F0F1
:1052100027F90346002B01D00123FB75FB6803F53A
:1052200000631A4600231361FB6803F500631A4606
:1052300000235361FB6803F500631A460023D36122
:1052400000233B6143E03B695A01FB68134403F5CB
:1052500010631B6803F00043B3F1004F18D13B69A2
:10526000002B0AD13B695A01FB68134403F5106314
:105270001A464FF00063136013E03B695A01FB6864
:10528000134403F510631A464FF09043136008E08F
:105290003B695A01FB68134403F510631A46002367
:1052A00013603B695A01FB68134403F510631A4607
:1052B000002313613B695A01FB68134403F5106333
:1052C0001A464FF67F3393603B6901333B617B6A3B
:1052D0003A699A42B7D300233B6143E03B695A01E4
:1052E000FB68134403F530631B6803F00043B3F11C
:1052F000004F18D13B69002B0AD13B695A01FB686A
:10530000134403F530631A464FF00063136013E053
:105310003B695A01FB68134403F530631A464FF0AA
:105320009043136008E03B695A01FB68134403F59E
:1053300030631A46002313603B695A01FB6813442B
:1053400003F530631A46002313613B695A01FB6879
:10535000134403F530631A464FF67F3393603B697D
:1053600001333B617B6A3A699A42B7D3FB6803F524
:1053700000631B69FA6802F5006223F4807313610D
:105380003B6B012B11D1FB6803F500631A46204BE0
:105390001363FB6803F500631B6BFA6802F5006298
:1053A00043F4803343F0030313637B6800229A6164
:1053B0007B686FF080425A613B6B002B05D17B68A4
:1053C0009B6943F010027B689A617B689A69114B74
:1053D00013437A689361FB6B002B05D07B689B6954
:1053E00043F008027B689A61FB6C012B07D17B6854
:1053F0009B6943F0804343F004037A689361FB7D2B
:1054000018461837BD46BDE8804004B0704700BF5D
:105410000001800000383C8080B485B000AF786027
:1054200039600023FB603B689B0143F020027B68EE
:105430001A61FB680133FB60FB68084A934201D99B
:10544000032306E07B681B6903F02003202BF0D0C8
:10545000002318461437BD4680BC7047400D03003A
:1054600080B485B000AF78600023FB607B681022B9
:105470001A61FB680133FB60FB68084A934201D95B
:10548000032306E07B681B6903F01003102BF0D0A8
:10549000002318461437BD4680BC7047400D0300FA
:1054A00080B485B000AF78600B46FB707B68FB6012
:1054B000FB6803F500631A68FB78F96801F5006181
:1054C00013430B60002318461437BD4680BC704759
:1054D00080B487B000AF78607B683B613B6903F5BF
:1054E00000639B6803F00603FB60FB68002B02D19E
:1054F0000023FB750AE0FB68022B02D0FB68062B39
:1055000002D10323FB7501E00023FB75FB7D1846E8
:105510001C37BD4680BC704780B485B000AF786052
:1055200039607B68FB603B681B78BB603B685B78DD
:10553000012B3AD1FB6803F50063DA693B681B78FD
:1055400003F00F03012101FA03F39BB2F96801F59F
:1055500000611343CB61BB685A01FB68134403F538
:1055600010631B6803F40043002B55D1BB685A013C
:10557000FB68134403F510631A683B689B68C3F328
:105580000A013B68DB789B041943BB689B050B430E
:105590001343BA685101FA680A4402F5106243F0F5
:1055A000805343F40043136036E0FB6803F5006367
:1055B000DA693B681B7803F00F03012101FA03F35A
:1055C0001B04F96801F500611343CB61BB685A0104
:1055D000FB68134403F530631B6803F40043002B9E
:1055E0001AD1BB685A01FB68134403F530631A688B
:1055F0003B689B68C3F30A013B68DB789B040B4361
:105600001343BA685101FA680A4402F5306243F064
:10561000805343F400431360002318461437BD46FB
:1056200080BC704780B485B000AF786039607B681B
:10563000FB603B681B78BB603B685B78012B35D116
:10564000FB6803F50063DA6B3B681B7803F00F031C
:10565000012101FA03F39BB2DB43F96801F5006114
:105660001340CB63FB6803F50063DA693B681B7882
:1056700003F00F03012101FA03F39BB2DB43F96846
:1056800001F500611340CB61BB685A01FB6813440C
:1056900003F510631A68BB685901FB680B4403F5F6
:1056A000106319461F4B13400B6034E0FB6803F591
:1056B0000063DA6B3B681B7803F00F03012101FAEA
:1056C00003F31B04DB43F96801F500611340CB636E
:1056D000FB6803F50063DA693B681B7803F00F038E
:1056E000012101FA03F31B04DB43F96801F50061B2
:1056F0001340CB61BB685A01FB68134403F5306368
:105700001A68BB685901FB680B4403F530631946FE
:10571000054B13400B60002318461437BD4680BC70
:10572000704700BF007833EC0078F3EF80B58AB0A3
:1057300002AFF860B9601346FB71FB68FB61BB68A0
:105740001B78BB61BB685B78012B40F02681BB688E
:105750005B69002B32D1BB695A01FB69134403F525
:1057600010631B69BA695101FA690A4402F51062B3
:1057700023F0FF5323F4C0131361BB695A01FB6983
:10578000134403F510631B69BA695101FA690A44AD
:1057900002F5106243F400231361BB695A01FB69EF
:1057A000134403F510631B69BA695101FA690A448D
:1057B00002F51062DB0CDB04136174E0BB695A0173
:1057C000FB69134403F510631B69BA695101FA6957
:1057D0000A4402F51062DB0CDB041361BB695A0159
:1057E000FB69134403F510631B69BA695101FA6937
:1057F0000A4402F5106223F0FF5323F4C01313612F
:10580000BB695A01FB69134403F510631A69BB684D
:105810005969BB689B680B44591EBB689B68B1FB08
:10582000F3F3D904824B0B40B9694801F96901448B
:1058300001F5106113430B61BB695A01FB69134405
:1058400003F510631A69BB685B69C3F31203B96996
:105850004801F969014401F5106113430B61BB680C
:10586000DB78012B1FD1BB695A01FB69134403F597
:1058700010631B69BA695101FA690A4402F51062A2
:1058800023F0C0431361BB695A01FB69134403F55C
:1058900010631B69BA695101FA690A4402F5106282
:1058A00043F000531361FB79012B0ED1BB681B69D8
:1058B000002B22D0BB695A01FB69134403F5106326
:1058C0001A46BB681B69536117E0BB68DB78012B84
:1058D00013D0BB685B69002B0FD0FB6903F5006335
:1058E0005A6BBB681B7803F00F03012101FA03F325
:1058F000F96901F5006113434B63BB68DB78012B49
:1059000028D1FB6903F500639B6803F48073002BC7
:1059100010D1BB695A01FB69134403F510631B687E
:10592000BA695101FA690A4402F5106243F0005362
:1059300013600FE0BB695A01FB69134403F5106360
:105940001B68BA695101FA690A4402F5106243F012
:1059500080531360BB695A01FB69134403F510635C
:105960001B68BA695101FA690A4402F5106243F0F2
:1059700004431360BB68DB78012B40F0DD80BB681B
:10598000D968BB681A78BB685B6998B2FB790093E9
:105990000346F86800F01AFACEE0BB695A01FB69C9
:1059A000134403F530631B69BA695101FA690A446B
:1059B00002F53062DB0CDB041361BB695A01FB6941
:1059C000134403F530631B69BA695101FA690A444B
:1059D00002F5306223F0FF5323F4C0131361BB6858
:1059E0005B69002B26D1BB695A01FB69134403F59F
:1059F00030631A69BB689B68C3F31203B969480135
:105A0000F969014401F5306113430B61BB695A0127
:105A1000FB69134403F530631B69BA695101FA69E4
:105A20000A4402F5306243F40023136136E000BFFC
:105A30000000F81FBB685A69BB689B6813445A1E74
:105A4000BB689B68B2FBF3F3FB82BB695A01FB693D
:105A5000134403F530631A69FB8AD904394B0B40B0
:105A6000B9694801F969014401F5306113430B61DB
:105A7000BB695A01FB69134403F530631A69BB68BB
:105A80009B68F98A01FB03F3C3F31203B969480168
:105A9000F969014401F5306113430B61FB79012B76
:105AA0000DD1BB68DB68002B09D0BB68D968BB6926
:105AB0005A01FB69134403F530630A465A61BB6817
:105AC000DB78012B28D1FB6903F500639B6803F4A5
:105AD0008073002B10D1BB695A01FB69134403F595
